:020000040800F2
:10000000205B002029030008B134000811310008EA
:10001000AD3400082F090008753C000800000000FE
:10002000000000000000000000000000690200085D
:10003000710D000800000000C5020008BF34000870
:100040004303000843030008430300084303000878
:100050004303000843030008430300084303000868
:100060004303000843030008430300084303000858
:10007000450A00084303000843030008430300083F
:100080004303000843030008430300084303000838
:100090003509000843030008430300084303000830
:1000A0004303000843030008430300084303000818
:1000B0004303000843030008430300084303000808
:1000C00043030008430300084303000843030008F8
:1000D00043030008413C000843030008513C00086A
:1000E00043030008430300084303000843030008D8
:1000F00043030008430300084303000843030008C8
:1001000043030008430300084303000843030008B7
:1001100043030008430300084303000843030008A7
:1001200043030008550A000843030008430300087E
:100130004303000843030008430300084303000887
:10014000450900084303000843030008430300086F
:10015000650A0008750A000843030008653C0008AA
:100160004303000843030008430300084303000857
:100170004303000843030008430300080000000095
:10018000430300084303000800F002F800F05CF8A5
:100190000AA090E8000C82448344AAF10107DA45E2
:1001A00001D100F051F8AFF2090EBAE80F0013F0D8
:1001B000010F18BFFB1A43F00103184774990000A0
:1001C000949900000A444FF0000C10F8013B13F022
:1001D000070408BF10F8014B1D1108BF10F8015BA0
:1001E000641E05D010F8016B641E01F8016BF9D193
:1001F00013F0080F1EBF10F8014BAD1C0C1B09D1EA
:100200006D1E58BF01F801CBFAD505E014F8016B5B
:1002100001F8016B6D1EF9D59142D6D370470000ED
:100220000023002400250026103A28BF78C1FBD8FF
:10023000520728BF30C148BF0B6070471FB508F098
:10024000EBFC1FBD10B510BD00F0B4FA1146FFF76E
:10025000F5FF04F0A9FB00F0D2FA03B4FFF7F2FFB8
:1002600003BC00F03DFB00002C4B19680868B0E8A7
:10027000F04F80F30988BFF36F8F4FF0000080F3D9
:10028000118870470000000008480068006880F38B
:1002900008884FF0000080F3148862B661B6BFF39F
:1002A0004F8FBFF36F8F00DF00BF00BF08ED00E08E
:1002B000DFF80C00016841F470010160704700BF75
:1002C00088ED00E0EFF30980BFF36F8F134B1A68DE
:1002D0001EF0100F08BF20ED108A20E9F04F1060CB
:1002E00009B44FF0500080F31188BFF34F8FBFF374
:1002F0006F8F06F005FA4FF0000080F3118809BCFB
:1003000019680868B0E8F04F1EF0100F08BFB0EC95
:10031000108A80F30988BFF36F8F70473400002084
:10032000EFF30580704700000948804709480047FF
:10033000FEE7FEE7FEE7FEE7FEE7FEE7FEE7FEE795
:10034000FEE7FEE704480549054A064B70470000F2
:10035000893500088901000820550020205B002015
:1003600020570020205700209FED1A1AF5EE000AB2
:1003700040EE010ABDEEE00AF5EEC00A10EE100AEA
:10038000F1EE10FA38BF401E00EE100A1349F7EEE6
:10039000001AB8EEC00A30EEC00ADFED0F0A20EEF8
:1003A000200AFCEEC00A10EE900AC0F3080000EE2E
:1003B000900A01EB8000F8EE600A90ED011A70EEF1
:1003C000600A90ED000A71EEE01A21EE800A00EE5C
:1003D000810A704783F9223E00000044D49200084D
:1003E000DFED190AB5EEC00A60EE200ABDEEE01A94
:1003F00011EE100AF1EE10FA38BF401E00EE100A9E
:100400001349F7EE001AB8EEC00A30EEC00ADFED6D
:100410000F0A60EE200ABCEEE00A10EE100AC0F3EC
:10042000080000EE100A01EB8000B8EE400A90EDE3
:10043000011A70EEC00A90ED000A71EEE01A21EE8A
:10044000800A00EE810A704783F9223E00000044D2
:10045000D492000853EA020C00F069802DE9F04BB9
:100460004FF00006002B1FBFB3FA83F503FA05F423
:1004700024FA05F65E4012BF1643B2FA82F502FA7C
:1004800005F4C5F120051EBF22FA05FC44EA0C0460
:10049000203556EA044C4FEA144418BF641C4FF050
:1004A00000084FF00009904271EB030C39D300298A
:1004B00019BFB1FA81F701FA07F6B0FA80F700FA2E
:1004C00007F6C7F120071EBF20FA07FC46EA0C0614
:1004D0002037B6FBF4FCA7EB0507103F07F01F0B16
:1004E000CBF120060CFA0BFB2CFA06F644BFB34600
:1004F0000026202FA4BF5E464FF0000B5BEA060CDF
:1005000008BF4FF0010B19EB0B09ABFB027C48EB6A
:100510000608C01B06FB02CC0BFB03CC71EB0C01E5
:10052000C1E70B46024641464846BDE8F08B13B58D
:100530004FF000004FF00001AFF30080BDE81C4019
:100540007047032A40F2308010F0030C00F0158051
:1005500011F8013BBCF1020F624498BF11F801CBC6
:1005600000F8013B38BF11F8013BA2F1040298BF2B
:1005700000F801CB38BF00F8013B11F0030300F095
:100580006780083AC0F0088051F8043B083A51F8F7
:1005900004CBA0E80810F5E7121D5CBF51F8043B3E
:1005A00040F8043BAFF30080D20724BF11F8013BB1
:1005B00011F801CB48BF11F8012B24BF00F8013B13
:1005C00000F801CB48BF00F8012B7047431A28BF41
:1005D0009A427FF6B6AF032A1044114440F22680B7
:1005E00010F0030F1EBF11F8013D521E00F8013D2F
:1005F00010F0030F7FF4F6AF11F0030300F09780C3
:10060000083AC0F00B8051F8043D083A51F804CD87
:1006100040F8043D40F804CDFFF7F3BF121D5CBF66
:1006200051F8043D40F8043DAFF30080D20724BFE9
:1006300011F8013D11F801CD48BF11F8012C24BF7C
:1006400000F8013D00F801CD48BF00F8012C7047CB
:1006500010B5203AC0F00B80B1E81850203AA0E85D
:100660001850B1E81850A0E81850BFF4F5AF5FEA91
:10067000027C24BFB1E81850A0E8185044BF18C944
:1006800018C0BDE810405FEA827C24BF51F8043BEB
:1006900040F8043B08BF7047D20728BF31F8023B3F
:1006A00048BF11F8012B28BF20F8023B48BF00F8D3
:1006B000012B70474FF0000200B513469446964652
:1006C000203922BFA0E80C50A0E80C50B1F1200165
:1006D000BFF4F7AF090728BFA0E80C5048BF0CC013
:1006E0005DF804EB890028BF40F8042B08BF704771
:1006F00048BF20F8022B11F0804F18BF00F8012BE3
:100700007047704770477047431A28BF9A427FF678
:100710009FAF104410F0030F11441EBF11F8013DAC
:10072000521E00F8013D10F0030F7FF4F6AF103AAF
:10073000C0F00A8010B531E91850103A20E918507D
:10074000BFF4F9AFBDE81040530724BF31E90810EA
:1007500020E9081044BF51F8043D40F8043D12F070
:10076000030F08BF7047D20728BF31F8023D48BFCA
:1007700011F8012C28BF20F8023D48BF00F8012CD9
:10078000704700001FB584B000200A9C06AB04AA85
:1007900002A90094AFF3008018B1DDE9020108B0AE
:1007A00010BD0348204000F033F800200146F6E772
:1007B0000000207C754600F033F8AE46050069461F
:1007C000534620F00700854618B020B5FFF7BAFD64
:1007D000BDE820404FF000064FF000074FF0000842
:1007E0004FF0000B21F00701AC46ACE8C009ACE8C3
:1007F000C009ACE8C009ACE8C0098D46704710B527
:100800000446AFF300802046BDE81040FFF725BD49
:1008100010B500F00FF8BDE8104000F005B800007A
:1008200000487047BC540020002801D000F058B8A0
:100830007047000010B5022803D0410103D50DA177
:1008400012E0002010BD010101D50FA10CE0C10094
:1008500001D511A108E0810001D512A104E04000FA
:1008600001D513A100E0002115A000F03FF8012000
:1008700010BD0000496E76616C6964204F7065722E
:100880006174696F6E000000446976696465204296
:1008900079205A65726F00004F766572666C6F77CB
:1008A00000000000556E646572666C6F7700000092
:1008B000496E657861637420526573756C740000CD
:1008C0005349474650453A2041726974686D6574D2
:1008D000696320657863657074696F6E3A20000003
:1008E00001491820ABBEFEE72600020070B50546A0
:1008F0000C460A2000E06D1C00F011F835B1287894
:100900000028F8D102E0641C00F009F814B1207846
:100910000028F8D1BDE870400A20AFF3008008B588
:1009200069468DF800000320ABBE08BD704700BFCC
:10093000FEE7000010B5024800F035FC10BD0000D5
:100940009407002010B5024800F02DFC10BD0000F7
:10095000BC070020F8B504460D4616461F46002089
:100960000E498860C8600820086140F201100860E4
:10097000200A0B4908704C70280A8870CD70300A24
:1009800008714E71084687710020C8716B460A468F
:100990000249044800F005FAF8BD0000C4480020F0
:1009A000CC000020BC07002038B505460C460020CE
:1009B0000D498860C8600820086140F2FF10086097
:1009C000280A0A4908704D70200A8870CC700020EF
:1009D000087148718871C8716B460A46024904481B
:1009E00000F0DFF938BD0000C4480020CC00002032
:1009F000BC070020F8B506460C4615464FF40070BB
:100A00000D49086000208860C86008200861300A2D
:100A10000A4908704E70200A8870CC70280A087144
:100A20004D7100208871C8716B460A46024904481E
:100A300000F0B7F9F8BD0000AC480020C400002069
:100A40009407002010B5024800F0CCFF10BD000054
:100A50001C09002010B5024800F0C4FF10BD0000C2
:100A60007C09002010B5024800F0BCFF10BD00005A
:100A7000BC08002010B5024800F0B4FF10BD000013
:100A8000DC0900200146087810381823B0FBF3F287
:100A90000848805CC865032A05D908686FF3090017
:100AA000001D886503E008686FF309008865886D9C
:100AB000704700006C8F0008014600208A6A8B692D
:100AC000CBB932B1012A0DD0022A03D0032A10D1AA
:100AD0000EE000BFCB6A03F08073B3F1807F00D1DA
:100AE000012007E0CB6AB3F1C07F00D1012001E013
:100AF00000E000BF34E08B69B3F5005F1AD132B17A
:100B0000012A07D0022A03D0032A11D10AE000BF2C
:100B100001200EE0CB6A03F08073B3F1807F00D137
:100B2000012006E0CB6AB3F1C07F00D1012000E0D4
:100B300000BF15E032B1012A05D0022A04D0032AF1
:100B40000CD103E000BF00BF012008E0CB6A03F036
:100B50008073B3F1807F00D1012000E000BF00BFAF
:100B6000704730B50468246824F4802405682C603C
:100B7000046863608468402C04D10468A26004683F
:100B8000E16003E00468A1600468E26030BD000039
:100B900010B524220249A1F1240000F003F810BD91
:100BA0001649002010B5234B1B685B6943F04003D6
:100BB000204C246863611F4B1B68DB6843F0100303
:100BC0001C4C2468E3601C4B1B681B6823F001036A
:100BD000194C2468236007E0174B1B681B6823F03F
:100BE0000103154C24682360134B1B681B6803F03A
:100BF0000103002BF0D1114B0F4C2468A3600E4B66
:100C00001B68D8600C4B1B6819610B4B1B685A6042
:100C1000094B1B681B6843F48023074C246823603E
:100C2000054B1B681B6843F00103034C24682360D9
:100C300010BD00002C0800201C09002004480040C2
:100C400008B545480068006800F0200060B100BFAA
:100C50000020009040480068006800903E4800680E
:100C60004068009000BF75E03C4800680001002823
:100C700070D000BF002000903748006800680090E6
:100C8000354800684068009000BF00BF34480068E5
:100C9000006800F4002070BB31480068006820F054
:100CA00001002F49096808602D4800684068C0F1BC
:100CB00024002C49088024202949096848602848D4
:100CC0000068006840F4002025490968086024484D
:100CD0000068006840F00100214909680860214867
:100CE0000088122836D12049204804F07FFD0020DA
:100CF00003F080FE2EE0FFE719480068006820F04E
:100D00000100174909680860154800684068C0F18B
:100D100024001449088024201149096848601048BB
:100D20000068006820F400200D49096808600C483C
:100D30000068006840F00100094909680860094836
:100D40000088122806D10849084804F04FFD002009
:100D500003F050FE08BD00002C08002000480040B1
:100D60001C090020D6000020DC480020F2480020AA
:100D7000704772B600BFFEE710B5024692F8203009
:100D8000012B01D0022B06D110684069084314687A
:100D90006061002010BD506A40F480205062012044
:100DA000F8E7F0B504460D461E4694F8207020681A
:100DB0008368A86800B900E000BF012F01D0022FAE
:100DC0007DD103F0806030B903F0006018B903F002
:100DD000805000287ED0C3F301610120884030603C
:100DE000A86860B9B5F800C0E86840EA4C5C2068C3
:100DF00000F5C07000EB0110C0F800C00FE0D5E9AD
:100E000001C040EACC00D5F80CC040EA0C00D4F890
:100E100000C00CF5C07C0CEB011CCCF80000D5F830
:100E200010C0206800F5C07000EB0110C0F804C0CD
:100E3000287D01280ED1206800F5C07000EB01105C
:100E4000406840F4807C206800F5C07000EB011021
:100E5000C0F804C0D079000692F806C040EA0C4001
:100E600092F805C040EA0C2092F804C040EA0C0059
:100E7000D4F800C00CF5C07C0CEB011CCCF80C00C5
:100E8000D078000692F802C040EA0C4092F801C007
:100E900040EA0C2092F800C040EA0C00D4F800C0F0
:100EA0000CF5C07C0CEB011CCCF80800206800F5A8
:100EB000C07000EB0110006840F0010C01E00FE091
:100EC00008E0206800F5C07000EB0110C0F800C019
:100ED0000020F0BD606A40F4001060620120F8E775
:100EE000606A40F4802060620120F2E7F0B50446B9
:100EF0000A46216894F82050012D01D0022D7ED1A0
:100F0000424901F50071086840F001000860086876
:100F100020F47C5008600868566A40EA06200860A1
:100F2000107D00F01F06012000FA06F3C8699843FF
:100F3000C861A1F50071D069C8B9D1F80C02984315
:100F4000C1F80C02908880B2968940EA064601F505
:100F50001070576940F83760108880B2168940EAEF
:100F6000064601F51070576900EBC7004660D0696E
:100F7000012819D1D1F80C021843C1F80C0290884D
:100F800080B2168840EA064601F51070576940F8AD
:100F90003760908980B2168940EA064601F51070E4
:100FA000576900EBC7004660906928B9D1F8040280
:100FB0009843C1F8040204E0D1F804021843C1F8D0
:100FC0000402106928B9D1F814029843C1F8140238
:100FD00004E0D1F814021843C1F81402106A012881
:100FE00004D1D1F81C021843C1F81C02D1F8000248
:100FF00020F00100C1F800020020F0BDFFE7606AA8
:1010000040F4802060620120F7E7000000640040A7
:10101000704770B5044694F82050012D01D0022D80
:101020007DD151B92068C06800F0030080B9606AC2
:1010300040F400106062012070BD2068006900F07B
:10104000030028B9606A40F4001060620120F3E7F1
:10105000206800F5D87000EB0110006800F0040073
:101060009060906840B9206800F5D87000EB0110DE
:101070000068400D106007E0206800F5D87000EBB4
:1010800001100068C0085060206800F5D87000EBBF
:101090000110006800F00200D060206800F5D870F0
:1010A00000EB0110406800F00F00082802D3082070
:1010B000106108E0206800F5D87000EB011040686E
:1010C00000F00F001061206800F5D87000EB0110EF
:1010D000406800F47F40000A9061206800F5D870F5
:1010E00000EB01104068000C5061206800F5D870DA
:1010F00000EB011080681870206800F5D87000EBD4
:101100000110806800F47F40000A5870206800F5E4
:10111000D87000EB0110806800F47F0000E03CE034
:10112000000C9870206800F5D87000EB0110806802
:10113000000ED870206800F5D87000EB0110C06870
:101140001871206800F5D87000EB0110C06800F439
:101150007F40000A5871206800F5D87000EB01103C
:10116000C06800F47F00000C9871206800F5D8700A
:1011700000EB0110C068000ED87131B92068C0685A
:1011800040F020002668F06005E02068006940F02B
:1011900020002668306100204EE7606A40F480201D
:1011A0006062012048E72DE9F05F044600252068D1
:1011B00046692068D0F80490206887682068D0F8D5
:1011C0000CA02068D0F810B02068D0F8188006F085
:1011D0000100002855D007F00100C0B101202168AE
:1011E000886007F0020018B1204600F08AFB0EE08C
:1011F00007F0040010B145F4006508E007F00800AE
:1012000010B145F4805502E0204600F079FB07F468
:101210008070C8B14FF480702168886007F4007056
:1012200018B1204600F06FFB0EE007F4806010B1AB
:1012300045F4005508E007F4006010B145F480451E
:1012400002E0204600F05EFB07F48030C8B14FF4A6
:1012500080302168886007F4003018B1204600F023
:1012600054FB0EE007F4802010B145F4004508E07F
:1012700007F4002010B145F4803502E0204600F06C
:1012800043FB06F0080038B10AF0100020B145F425
:10129000007510202168C86006F0040040B10AF013
:1012A000080028B108202168C860204600F00CFA28
:1012B00006F0020038B12068C06800F0030010B1E9
:1012C000204600F003FA06F0400038B10BF01000A1
:1012D00020B145F4806510202168086106F02000E7
:1012E00040B10BF0080028B10820216808612046B1
:1012F00000F0D4FA06F0100038B12068006900F060
:10130000030010B1204600F0CAFA06F4003040B1E4
:1013100009F0100028B1102021684860204600F034
:10132000BFFA06F4803040B109F0080028B1082067
:1013300021684860204600F0E9FA06F4004088B3CE
:1013400009F0040078B306F4807020B108F00100C1
:1013500008B145F0010506F4007020B108F0020064
:1013600008B145F0020506F4806020B108F00400E1
:1013700008B145F0040506F40060A0B108F0700063
:1013800088B108F07000402817D006DC10280BD078
:1013900020280CD0302819D10CE0502810D060281B
:1013A00014D110E01DE019E045F008050FE045F00C
:1013B00010050CE045F0200509E045F0400506E089
:1013C00045F0800503E045F4807500E000BF00BFF4
:1013D0002068806920F070002168886104202168FD
:1013E00048602DB1606A284360622046FFF710FE16
:1013F000BDE8F09F70B504460CB9012070BD94F8AB
:10140000200010B9204600F0AFF82068006840F0D6
:1014100001002168086000F0C5FD05460DE000F000
:10142000C1FD401B0A2808D9606A40F400306062A0
:10143000052084F820000120E0E72068406800F0E3
:1014400001000028EBD02068006820F0020021682D
:10145000086000F0A7FD05460DE000F0A3FD401B6D
:101460000A2808D9606A40F400306062052084F8D8
:1014700020000120C2E72068406800F00200002838
:10148000EBD1207E012806D12068006840F0800062
:101490002168086005E02068006820F0800021686D
:1014A0000860607E012806D12068006840F0400096
:1014B0002168086005E02068006820F0400021688D
:1014C0000860A07E012806D12068006840F0200056
:1014D0002168086005E02068006820F0200021688D
:1014E0000860E07E012806D12068006820F0100026
:1014F0002168086005E02068006840F0100021685D
:101500000860207F012806D12068006840F00800AC
:101510002168086005E02068006820F00800216864
:101520000860607F012806D12068006840F0040050
:101530002168086005E02068006820F00400216848
:101540000860D4E90201084321690843616908433E
:101550006168491E08432168C8610020606201205B
:1015600084F82000002049E710B586B00446142115
:1015700001A8FFF79FF84E492068884241D14D48A5
:101580000068401C4B4908600846006801280FD1DC
:1015900000BF002000904848006840F000704649B5
:1015A00008600846006800F00070009000BF00BFAF
:1015B00000BF0020009040481038006840F008004C
:1015C0003D49103908600846006800F008000090A6
:1015D00000BF00BF03200190022002900120039071
:1015E000032004900920059001A9344800F0DAFB9B
:1015F00000220521142000F069FD142000F052FDA6
:1016000054E02F492068884250D100BF002000904C
:101610002948006840F08060274908600846006853
:1016200000F08060009000BF00BF22480068401CAE
:10163000204908600846006801280FD100BF00203B
:1016400000901D48006840F000701B490860084683
:10165000006800F00070009000BF00BF00BF0020D5
:10166000009015481038006840F002001249103907
:1016700008600846006800F00200009000BF00BF4C
:10168000602001900220029001200390032004902A
:101690000920059001A90B4800F084FB00220521D8
:1016A000402000F013FD402000F0FCFC06B010BD0F
:1016B000006400402000002040380240000C02403E
:1016C00000680040000402407047000010B58AB076
:1016D000044601AB03AA00212046FFF79AFC6A48A2
:1016E000844256D10398B0F5807F4CD0A0F20520FB
:1016F00010B101284BD100E000BF0398401F63499F
:1017000008700846007800EB8000614931F810004D
:1017100000B25E49097801EB81015D4A02EB4101AB
:1017200008819DF805009DF8041040EA0120574902
:10173000097801EB810122F811009DF807009DF85E
:10174000061040EA012000B25049097801EB8101FE
:1017500002EB410148809DF809009DF8081040EA1D
:10176000012000B24949097801EB810102EB4101F6
:1017700088809DF80A004549097801EB810102EB58
:101780004101887104E001A802F09EFC00E000BF66
:1017900078E04048844275D10398A0F2012020B13E
:1017A000012825D002286BD145E03B48008800B2D3
:1017B000394908819DF805009DF8041040EA012090
:1017C000354908809DF807009DF8061040EA012081
:1017D00000B2314948809DF809009DF8081040EAA0
:1017E000012000B22C4988809DF80A00887148E0E9
:1017F0002948408901B2284841829DF805009DF89A
:10180000041040EA0120244948819DF807009DF812
:10181000061040EA012001B21F4881819DF80900AD
:101820009DF8081040EA012001B21B48C1819DF8D3
:101830000A10017425E01848808A01B21648818395
:101840009DF805009DF8041040EA012012498882A5
:101850009DF807009DF8061040EA012001B20E48ED
:10186000C1829DF809009DF8081040EA012001B2EC
:10187000094801839DF80A10817602E002E0FFE743
:1018800000BF00BF0AB010BDBC070020D40000207C
:1018900078480020940700208C480020704770474B
:1018A000704770B5044694F82000012822D1022028
:1018B00084F820002068006820F00100216808609A
:1018C00000F070FB05460DE000F06CFB401B0A28A1
:1018D00008D9606A40F400306062052084F8200076
:1018E000012070BD2068406800F001000028EBD1A5
:1018F0006062F6E7606A40F4002060620120F0E771
:10190000704770477047704770477047704770B5B1
:101910000446A56D00F046FB064694F83500022803
:1019200008D08020606500BF002084F8340000BF2C
:10193000012070BD2068006820F016002168086052
:101940002068406920F0800021684861206C08B957
:10195000A06C28B12068006820F0080021680860A9
:101960002068006820F001002168086010E000F0A5
:1019700019FB801B05280BD920206065032084F803
:10198000350000BF002084F8340000BF0320D0E7FA
:101990002068006800F001000028E8D194F85C108D
:1019A0003F208840A860012084F8350000BF002057
:1019B00084F8340000BF00BFBBE7014691F8350052
:1019C000022803D08020486501207047052081F857
:1019D00035000868006820F001000A6810600020E7
:1019E000F3E70000F8B50446002000908C4800683A
:1019F0004FF41651B0FBF1F7A56D2E6894F85C100A
:101A000008208840304098B12068006800F0040049
:101A100070B12068006820F004002168086094F824
:101A20005C1008208840A860606D40F0010060658F
:101A300094F85C1001208840304068B1206840690B
:101A400000F0800040B194F85C1001208840A8604C
:101A5000606D40F00200606594F85C1004208840DE
:101A6000304068B12068006800F0020040B194F88E
:101A70005C1004208840A860606D40F00400606540
:101A800094F85C1010208840304078B320680068DB
:101A900000F0080050B394F85C1010208840A86053
:101AA0002068006800F4802080B12068006800F49D
:101AB000002028B9206CC8B12046216C884715E069
:101AC000A06C98B12046A16C88470FE020680068A0
:101AD00000F4807028B92068006820F008002168B0
:101AE0000860206C10B12046216C884794F85C1087
:101AF000202088403040002865D02068006800F031
:101B0000100000285FD094F85C1020208840A86066
:101B100094F83500052828D12068006820F01600C8
:101B2000216808602068406920F0800021684861D1
:101B3000206C08B9A06C28B12068006820F008006B
:101B40002168086094F85C103F208840A86001205C
:101B500084F8350000BF002084F8340000BF206DF9
:101B600010B12046216D8847F8BD2068006800F458
:101B7000802080B12068006800F4002028B9606CE3
:101B800010B12046616C88471DE0E06BD8B120465B
:101B9000E16B884717E02068006800F4807068B93E
:101BA0002068006820F0100021680860012084F897
:101BB000350000BF002084F8340000BFE06B10B196
:101BC0002046E16B8847606D38B3606D00F001001E
:101BD000F0B1052084F835002068006820F001008D
:101BE0002168086000BF0098401C0090B84200D9EE
:101BF00005E02068006800F001000028F3D100BF74
:101C0000012084F8350000BF002084F8340000BFB4
:101C1000E06C10B12046E16C884700BFA4E70000EB
:101C2000300000202DE9F0410446002500F0BAF90B
:101C3000074614B90120BDE8F081606A00B100BF19
:101C4000022084F8350000BF002084F8340000BF73
:101C50002068006820F00100216808600AE000F0B8
:101C6000A1F9C01B052805D920206065032084F850
:101C70003500E0E72068006800F001000028EED1A0
:101C80002068056821480540D4E901010843E1685E
:101C900008432169084361690843A1690843E16970
:101CA0000843216A08430543606A042803D1D4E944
:101CB0000B0108430543206805602068456925F04D
:101CC0000705606A0543606A04280DD1A06A0543D0
:101CD000E06A48B12046FEF7EFFE28B1402060657B
:101CE000012084F83500A6E7206845612046FEF70C
:101CF000C9FE064694F85C103F208840B060002082
:101D00006065012084F83500002094E73F8010F0E2
:101D10002DE9F04704460D4616461F464FF00008D1
:101D2000D4F8589000BF94F83400012802D1022062
:101D3000BDE8F087012084F8340000BF94F8350036
:101D4000012825D1022084F83500002060653B463B
:101D5000324629462046FEF704FF94F85C103F20E7
:101D60008840C9F808002068006840F01600216823
:101D70000860206C28B12068006840F008002168E5
:101D800008602068006840F001002168086006E0F3
:101D900000BF002084F8340000BF4FF00208404626
:101DA000C6E70000F8B502460B46002500240020D7
:101DB0000021D6E0012606FA01F51E6806EA0504B0
:101DC000AC4274D11E7906F00306012E04D01E79B0
:101DD00006F00306022E13D190684F000326BE4082
:101DE000B0434F00DE68BE4030439060506801262B
:101DF0008E40B0431E79C6F300168E4030435060CB
:101E00001E7906F00306032E09D0D0684F00032682
:101E1000BE40B0434F009E68BE403043D0601E7944
:101E200006F00306022E13D1CF0802F1200656F861
:101E300027004E07F70E0F26BE40B0434F07FF0E98
:101E40001E69BE403043CF0802F1200646F8270045
:101E500010684F000326BE40B0431E7906F003060B
:101E60004F00BE40304310605E6806F44036002EDE
:101E700076D000BF002600963C4E366846F4804679
:101E80003A4F3E603E46366806F48046009600BFF4
:101E900000BF374E8F0856F827008E07370F0F26E2
:101EA000BE40B043334EB24202D1002624E057E098
:101EB000314EB24201D101261EE0304EB24201D174
:101EC000022619E02E4EB24201D1032614E02D4E17
:101ED000B24201D104260FE02B4EB24201D10526B9
:101EE0000AE02A4EB24201D1062605E0284EB2424F
:101EF00001D1072600E008268F073F0FBE40304380
:101F00001B4E8F0846F82700224E3068A0435E68BB
:101F100006F4801606B120431E4E3060361D306830
:101F2000A0435E6806F4001606B12043194E361D24
:101F30003060184E361F3068A0435E6806F40036E5
:101F400006B12043134E361F3060361F3068A04361
:101F50005E6806F4803606B120430E4E083E3060BF
:101F6000491C1029FFF426AFF8BD00004438024098
:101F7000083801400000024000040240000802400E
:101F8000000C024000100240001402400018024001
:101F9000001C0240083C01400AB1816101E00B04D1
:101FA00083617047014800687047000024000020EA
:101FB00003480068034909780844014908607047EC
:101FC000240000202C00002010B50D48006840F4CB
:101FD00000700B4908600846006840F480600860A3
:101FE0000846006840F480700860032000F0ACF8F8
:101FF0000F2000F007F800F02BF8002010BD0000C3
:10200000003C024070B504460E4800784FF47A71E7
:10201000B1FBF0F00C490968B1FBF0F5284600F07F
:1020200035FC08B1012070BD102C07D200222146DA
:10203000501E00F04BF80548046001E00120F2E773
:102040000020F0E72C0000203000002028000020B5
:1020500008B500BF002000901148006840F480409F
:102060000F4908600846006800F48040009000BFF7
:1020700000BF00BF00200090081F006840F08050A3
:10208000091F08600846006800F08050009000BFFB
:1020900000BF00220F21901E00F018F808BD0000BC
:1020A000443802400146084600280DDB00BF00BF4F
:1020B00000F01F0301229A4043099B0003F1E02333
:1020C000C3F8002100BF00BF00BF70472DE9F05FDB
:1020D00080460D461646002701F0CEFD07463946DC
:1020E0002A46334601F00700C0F1070ABAF1040F8F
:1020F00002D94FF0040A01E0C0F1070AD14600F10D
:10210000040ABAF1070F02D24FF0000A01E0A0F171
:10211000030AD4464FF0010A0AFA09FAAAF1010AA1
:102120000AEA020A0AFA0CFA4FF0010B0BFA0CFB4E
:10213000ABF1010B0BEA030B4AEA0B0421464046C4
:1021400001F0A2FDBDE8F09F00BF00F00702064BC2
:1021500019684FF6FF031940044B0B4343EA022171
:10216000014B196000BF70470CED00E00000FA055C
:1021700070B504460D460CB9012070BD5848006882
:1021800000F00700A84209D255490D7008460068C2
:1021900000F00700A84201D00120EEE7207800F00F
:1021A000020002281DD1207800F00400042805D187
:1021B0004C48006840F4E0504A490860207800F03C
:1021C0000800082805D14748006840F460404549A8
:1021D00008604448006820F0F000A16808434149C5
:1021E0000860207800F00100A8B36068012807D1DA
:1021F0003C4808380068C0F34040B8B90120BCE74B
:102200006068022802D06068032807D13548083882
:102210000068C0F3406048B90120AEE73148083893
:102220000068C0F3400008B90120A6E72D48006807
:1022300020F00300616808432A490860FFF7B2FEF6
:10224000064609E0FFF7AEFE801B41F28831884266
:1022500002D9032091E707E02248006800F00C0053
:102260006168B0EB810FEDD11D48006800F00700F8
:10227000A84209D91A490D700846006800F0070005
:10228000A84201D0012078E7207800F0040004285B
:1022900007D11448006820F4E050E1680843114970
:1022A0000860207800F00800082808D10D48006870
:1022B00020F46040216940EAC1000A49086000F04A
:1022C0003FF808490968C1F30311074A515CC84047
:1022D0000649086006480068FFF794FE00204CE7B6
:1022E000003C024008380240748F00083000002093
:1022F00028000020014800687047000030000020DE
:1023000000B5FFF7F7FF04490968C1F38221034ACA
:10231000515CC84000BD000008380240848F0008AE
:1023200000B5FFF7E7FF04490968C1F34231034AEA
:10233000515CC84000BD000008380240848F00088E
:102340002DE9F047002400250026A1462548006815
:1023500000F00C0020B1042805D008283AD105E08F
:10236000DFF8849039E0DFF8849036E01D48001FE4
:10237000006800F03F041B48001F006800F4800064
:1023800078B11A481749091F0968C1F38811A0FBE1
:1023900001700146224600233846FEF75BF80546E9
:1023A0000EE011480F49091F0968C1F38811A0FB0D
:1023B00001700146224600233846FEF74BF80546D9
:1023C0000848001F0068C0F30140401C4600B5FBF0
:1023D000F6F902E0DFF8109000BF00BF4846BDE804
:1023E000F0870000083802400024F400001BB7000A
:1023F000F8B504460CB90120F8BD207800F00100C2
:10240000002874D0F948006800F00C0004280DD0B2
:10241000F648006800F00C00082813D1F348001FAC
:10242000006800F48000B0F5800F0BD1EF48083849
:102430000068C0F34040002859D06068002856D199
:102440000120D9E700BF6068B0F5803F08D1E748B8
:102450000838006840F48030E449083908601EE01C
:102460006068B0F5A02F0DD1E0480838006840F44E
:102470008020DE49083908600846006840F4803052
:1024800008600CE0D9480838006820F48030D7494B
:10249000083908600846006820F48020086000BF02
:1024A000606890B1FFF77EFD054606E0FFF77AFD14
:1024B000401B642801D903209EE7CC4808380068F7
:1024C000C0F340400028F1D011E0FFF76BFD054656
:1024D00006E0FFF767FD401B642801D903208BE766
:1024E000C24808380068C0F340400028F1D1207885
:1024F00000F0020002285FD1BC48006800F00C0028
:1025000058B1BA48006800F00C0008281CD1B74840
:10251000001F006800F48000B0B9B44808380068B3
:10252000C0F3400020B1E068012801D0012063E73A
:10253000AE480838006820F0F800216940EAC10080
:10254000AA490839086037E0E06800B30120A849CB
:102550000860FFF727FD054606E0FFF723FD401B57
:10256000022801D9032047E7A04808380068C0F3D3
:1025700040000028F1D09D480838006820F0F8009D
:10258000216940EAC10099490839086014E0002037
:1025900097490860FFF706FD054606E0FFF702FDD4
:1025A000401B022801D9032026E79048083800681C
:1025B000C0F340000028F1D1207800F0080008287E
:1025C0002CD16069A8B101208A490860FFF7EAFCB4
:1025D000054606E0FFF7E6FC401B022801D9032070
:1025E0000AE782486C300068C0F340000028F1D050
:1025F00014E000207F490860FFF7D4FC054606E0A0
:10260000FFF7D0FC401B022801D90320F4E67748ED
:102610006C300068C0F340000028F1D1207800F051
:102620000400042870D1002770483830006800F09A
:10263000805090B900BF002000906C48383000688E
:1026400040F080506949383108600846006800F061
:102650008050009000BF00BF01276748006800F469
:102660008070B0B96448006840F4807062490860C6
:10267000FFF798FC054606E0FFF794FC401B022894
:1026800001D90320B8E65C48006800F48070002897
:10269000F2D000BFA068012808D154486830006813
:1026A00040F001005149683108601DE0A06805282C
:1026B0000DD14E486830006840F004004B49683145
:1026C00008600846006840F0010008600CE04748D8
:1026D0006830006820F0010044496831086008460D
:1026E000006820F00400086000BFA068A8B1FFF7F0
:1026F00059FC054609E0FFF755FC401B41F28831C3
:10270000884202D9032077E626E03848683000681E
:10271000C0F340000028EED013E0FFF743FC05466D
:1027200008E0FFF73FFC401B41F28831884201D9A5
:10273000032061E62D4868300068C0F3400000289F
:10274000EFD1012F07D129483830006820F08050A0
:1027500026493831086000BFA069002845D02348C9
:10276000006800F00C0008285DD0A069022845D15F
:1027700000201F490866FFF715FC054606E0FFF735
:1027800011FC401B022801D9032035E61748083800
:102790000068C0F340600028F1D1D4E90701084384
:1027A000616A40EA81110122A06AC2EB500041EA4D
:1027B00000412C20005D41EA00600C49091F0860BF
:1027C00001200B490866FFF7EDFB054606E0FFF721
:1027D000E9FB401B022801D903200DE60348083815
:1027E0000068C0F340600028F1D049E0083802409A
:1027F00000004742800E47420070004000202149FF
:102800000866FFF7CFFB054606E0FFF7CBFB401B52
:10281000022801D90320EFE51B480068C0F340609F
:102820000028F2D12CE0A069012800D1E4E5164887
:10283000001D0668A069012820D006F48001E06927
:1028400081421BD106F03F01206A814216D147F632
:10285000C0703040616AB0EB811F0FD106F4403187
:102860000122A06AC2EB5000B1EB004F06D106F086
:1028700070612C20005DB1EB006F01D00120BBE541
:102880000020B9E5000047420038024070B5044618
:102890002546681EB0F1807F01D301200FE0681E3D
:1028A0004FF0E02148610F214FF0FF3001F0ECF9CB
:1028B00000204FF0E021886107200861002070BDF2
:1028C000F8B504460E46174694F8420020282ED14B
:1028D00006B10FB90120F8BD01202063002060631C
:1028E0003A463146204601F017F90546EDB9206B0E
:1028F000012819D100BF00200090206800680090D6
:1029000020684068009000BF00BF00BF00BF216882
:102910000C3151E8001F41F0100021680C3141E8F2
:102920000002002AF3D100E001252846D3E7022067
:10293000D1E7000070B505460E4616492868884262
:1029400026D115480078301A1449087012480478C6
:1029500008E01348011900231A461248006804F0E1
:1029600087FC641C0D4800788442F2DB0A4800783A
:102970000A49097808440849087008460078FF2881
:1029800001DB0020087008480068401C0649086008
:1029900070BD000000140140A4000020A50000202C
:1029A0002C4700201C000020A000002070470000E1
:1029B0002DE9F84F0446206805682068C66820683D
:1029C00047694FF00009CA4605F00F09B9F1000F39
:1029D0000AD105F0200038B106F0200020B12046D1
:1029E00000F006FFBDE8F88FB9F1000F7CD007F0CA
:1029F000010018B906F49070002875D005F00100A8
:102A000030B106F4807018B1606C40F00100606471
:102A100005F0040030B107F0010018B1606C40F01F
:102A20000200606405F0020030B107F0010018B147
:102A3000606C40F00400606405F0080048B106F0E6
:102A4000200010B907F0010018B1606C40F00800D8
:102A50006064606C002846D005F0200028B106F0C4
:102A6000200010B1204600F0C3FE20684069C0F38A
:102A7000801A606C00F0080010B9BAF1000F2DD078
:102A8000204600F05CFE2068406900F040004028CD
:102A900020D100BF00BF2168143151E8001F21F090
:102AA00040002168143141E80002002AF3D100BF40
:102AB000E06B50B17748E16B0865E06BFEF77DFF96
:102AC00088B1E06B016D88470DE02046FFF76EFF8F
:102AD00009E009E02046FFF769FF04E02046FFF720
:102AE00065FF002060647DE7206B012878D105F048
:102AF0001000002874D006F010000028FAD000BFA3
:102B000000200090206800680090206840680090D5
:102B100000BF00BF2068406900F04000402860D13D
:102B2000E06B006840681FFA80F8B8F1000F56D0DB
:102B3000A08D404553DDA4F82E80E06BC069B0F550
:102B4000807F43D000BF00BF21680C3151E8001FD7
:102B500021F4807021680C3141E80002002AF3D191
:102B600000BF00BF00BF2168143151E8001F21F0F1
:102B700001002168143141E80002002AF3D100BFAE
:102B800000BF00BF2168143151E8001F21F0400050
:102B90002168143141E80002002AF3D100BF20204F
:102BA00084F842000020206300BF00BF21680C3180
:102BB00051E8001F21F0100021680C3141E80002AB
:102BC000002AF3D100BFE06BFEF7A1FE0220606394
:102BD000A08DE28D801A81B22046FFF7ABFE01E79F
:102BE00042E0A08DE18D401A1FFA80F8E08DD0B34D
:102BF000B8F1000F37D000BF00BF21680C3151E899
:102C0000001F21F4907021680C3141E80002002A75
:102C1000F3D100BF00BF00BF2168143151E8001F8D
:102C200021F001002168143141E80002002AF3D1AB
:102C300000BF202084F842000020206300BF00BFB6
:102C400021680C3151E8001F21F0100021680C317F
:102C500041E80002002AF3D100BF02206063414630
:102C60002046FFF767FEBDE605F0800030B106F0B4
:102C7000800018B1204600F0B3FFB3E605F0400035
:102C800030B106F0400018B1204600F08EFDA9E6F4
:102C900000BFA7E69D35000810B504460CB9012019
:102CA00010BDA06900B100E000BF94F8410028B950
:102CB000002084F84000204600F02AF8242084F800
:102CC00041002068C06820F400502168C860204698
:102CD00000F00CFE2068006920F490402168086133
:102CE0002068406920F02A00216848612068C06897
:102CF00040F400502168C86000206064202084F8FF
:102D0000410084F842000020606300BFC8E7000073
:102D100010B586B00446142101A8FDF7CBFCB349D9
:102D20002068884277D100BF00200090B04800683A
:102D300040F01000AE4908600846006800F010003E
:102D4000009000BF00BF00BF00200090A8481438CA
:102D5000006840F00200A64914390860084600687F
:102D600000F00200009000BF00BF00BF00200090F4
:102D70000846006840F0010008600846006800F05E
:102D80000100009000BF00BF80200190022002904F
:102D900001200390032004900720059001A9954885
:102DA000FFF700F84FF4007001900220029001201C
:102DB0000390032004900720059001A98E48FEF798
:102DC000F1FF8E488E4908604FF000604860002196
:102DD0008B488160C1604FF48061016100214161D5
:102DE0008161C1614FF48031016200214162FEF7CF
:102DF00019FF08B1FDF7BDFF00BF8148E0638463A0
:102E000000BF002205212520FFF760F92520FFF7EC
:102E100049F9E8E0FFE77B492068884258D100BFC4
:102E2000002000907248001F006840F48020704924
:102E3000091F08600846006800F48020009000BF69
:102E400000BF00BF0020009069481438006840F0BF
:102E500004006749143908600846006800F004005F
:102E6000009000BF00BF4FF440600190022002902C
:102E700001200390032004900720059001A96248D7
:102E8000FEF790FF6148624908604FF000604860BB
:102E900000215F488160C1604FF4806101610021C1
:102EA00041618161C16101624162FEF7BBFE08B10F
:102EB000FDF75FFF00BF5648E063846300BF002258
:102EC00005212720FFF702F92720FFF7EBF88AE01A
:102ED0005049206888429CD100BF0020009044489F
:102EE000006840F02000424908600846006800F091
:102EF0002000009000BF00BF00BF002000903C48B1
:102F00001438006840F04000394914390860084618
:102F1000006800F04000009000BF00BF4FF4844004
:102F200001900220029001200390032004900820C9
:102F3000059001A93848FEF735FF30486038374919
:102F4000086080054860002134488160C1604FF40A
:102F5000806101610021416181614FF48071C16133
:102F60004FF440310162042141620321816200215A
:102F7000C1620163FEF756FE08B1FDF7FAFE00BF1D
:102F80002648E063846300BF1C4818302449086069
:102F90004FF0206048604021214881600021C160DD
:102FA0004FF480610161002141618161C1614FF491
:102FB0004031016204214162032181620021C1622A
:102FC0000163FEF72FFE08B1FDF7D3FE00BF1448E2
:102FD000A063846300BF002206214720FFF776F834
:102FE0004720FFF75FF806B010BD00000010014059
:102FF000443802400004024000000240886402405D
:10300000BC08002000480040000802402860024040
:103010001C09002000140140001802407C09002017
:10302000DC09002070B504460D46164694F84200AF
:1030300020280BD105B10EB9012070BD00202063FE
:1030400032462946204600F067FDF6E70220F4E705
:1030500010B5044606492068884208D10548007822
:1030600003F006FD012203490348FFF7DBFF10BD13
:10307000001001409C000020E40700207047000081
:10308000F7B50446154694F84100202836D101983A
:1030900000B10DB90120FEBD01982062A584E58430
:1030A00000206064212084F841001548A16BC863AA
:1030B0001448A16B08641448A16BC8640020A16B7C
:1030C000086501AE23681A1D31682B46A06BFEF718
:1030D0001FFE6FF040002168086000BF00BF21683C
:1030E000143151E8001F41F080002168143141E89B
:1030F0000002002AF3D100BF0020CCE70220CAE77B
:10310000D936000831370008B135000870477047DC
:1031100000BFFEE710B50E480E4908600320486066
:1031200000210C488160C1604FF4102101614FF40F
:10313000001141610021017641768176C1760177E7
:103140004177FEF757F908B1FDF713FE10BD0000F7
:10315000006400409407002010B50E480E49086036
:103160000320486000210C488160C1604FF41021A9
:1031700001614FF4001141610021017641768176B1
:10318000C17601774177FEF735F908B1FDF7F1FD1A
:1031900010BD000000680040BC07002008B500BF5B
:1031A000002000901E48006840F400101C49086090
:1031B0000846006800F40010009000BF00BF00BF88
:1031C000002000900846006840F48000086008462F
:1031D000006800F48000009000BF00BF00220521BD
:1031E0000C20FEF773FF0C20FEF75CFF0022052188
:1031F0003920FEF76BFF3920FEF754FF002205212E
:103200004420FEF763FF4420FEF74CFF0022052117
:103210004520FEF75BFF4520FEF744FF08BD000098
:103220003038024000B5B5B0304B0FCBCDE9332379
:10323000CDE93101002131A801F005FE2C490860DB
:103240001C222A4910312AA8FDF702FA00212AA8D7
:1032500001F00DFE274908601C2224492C3123A8C7
:10326000FDF7F6F9002123A801F001FE22490860CC
:103270001C221E4948311CA8FDF7EAF900211CA8B0
:1032800001F0F5FD1D4908601C221849643115A89C
:10329000FDF7DEF9002115A801F0E9FD18490860E5
:1032A0001C22124980310EA8FDF7D2F900210EA888
:1032B00001F0DDFD134908601C220C499C3107A870
:1032C000FDF7C6F9002107A801F0D1FD0E490860FD
:1032D0001C220649B8316846FDF7BAF90021684654
:1032E00001F0C5FD0949086035B000BD988E0008A1
:1032F0001C00002000000020040000200800002026
:103300000C000020100000201400002018000020F5
:1033100000B587B0142102A8FDF7CCF900BF00204A
:1033200001903548006840F00200334908600846C3
:10333000006800F00200019000BF00BF00BF002045
:1033400001900846006840F04000086008460068A8
:1033500000F04000019000BF00BF00BF00200190BE
:103360000846006840F0010008600846006800F068
:103370000100019000BF00BF00BF0020019008467F
:10338000006840F0080008600846006800F0080087
:10339000019000BF00BF00BF0020019008460068F8
:1033A00040F0040008600846006800F00400019046
:1033B00000BF00BF00BF002001900846006840F039
:1033C000800008600846006800F08000019000BF9F
:1033D00000BF012251030948FEF7DEFD4FF4005003
:1033E00002900120039004900220059002A9034856
:1033F000FEF7D8FC07B000BD3038024000040240A0
:1034000010B50B480B4908604FF4E13048600021CB
:1034100008488160C160016104214161002181612E
:10342000C161FFF739FC08B1FDF7A3FC10BD000036
:1034300000100140E407002010B50A480A4908605E
:103440000A484860002108488160C1600161042188
:10345000416100218161C161FFF71EFC08B1FDF7E8
:1034600088FC10BD004800402C080020A086010008
:1034700010B50C480C4908604FF4E1304860002159
:1034800009488160C16001610C21416100218161B5
:103490004FF40041C161FFF7FFFB08B1FDF769FC84
:1034A00010BD0000001401407408002000BFFEE7BA
:1034B00000BFFEE700BF012001F0B4FCFBE710B540
:1034C000FEF776FD04F0DCF8012801D003F0CCFD16
:1034D00010BD000000B593B0302107A8FDF7EAF851
:1034E000142102A8FDF7E6F800BF0020019024484F
:1034F000006840F08050224908600846006800F0EB
:103500008050019000BF00BF00BF002001901D4807
:10351000006840F480401B4908600846006800F4D9
:103520008040019000BF00BF012007900004089078
:1035300002200D9041050E9106210F91A8211091B6
:10354000022111910421129107A8FEF751FF08B141
:10355000FDF70FFC0F200290022003900020049042
:103560004FF4A05005904FF480500690052102A81A
:10357000FEF7FEFD08B1FDF7FCFB13B000BD000037
:1035800040380240007000400348006840F470007A
:10359000014908607047000088ED00E070B50546FD
:1035A000AC6B0020E085E0842046FFF7FFF970BD9A
:1035B00070B506460025B46B20684069C0F3C0159D
:1035C00094F84100212805D125B10020E08420464F
:1035D00000F0FBF820684069C0F3801594F84200C1
:1035E000222805D125B10020E085204600F0A7F86B
:1035F000606C40F0100060642046FFF7D7F970BDA2
:1036000070B50546AC6B2868006800F4807000282F
:1036100042D1E08500BF00BF21680C3151E8001F96
:1036200021F4807021680C3141E80002002AF3D1B6
:1036300000BF00BF00BF2168143151E8001F21F016
:1036400001002168143141E80002002AF3D100BFD3
:1036500000BF00BF2168143151E8001F21F0400075
:103660002168143141E80002002AF3D100BF202074
:1036700084F84200206B01280ED100BF00BF2168F2
:103680000C3151E8001F21F0100021680C3141E895
:103690000002002AF3D100BF00206063206B0128E4
:1036A00004D1A18D2046FFF745F902E02046FFF73F
:1036B000CFFC70BD70B50546AC6B01206063206B1C
:1036C000012805D1A08D41082046FFF733F902E01B
:1036D0002046FFF7D3FC70BD70B50546AC6B28687B
:1036E000006800F48070F8B90020E08400BF00BFDB
:1036F0002168143151E8001F21F080002168143145
:1037000041E80002002AF3D100BF00BF00BF2168DA
:103710000C3151E8001F41F0400021680C3141E8B4
:103720000002002AF3D102E02046FFF7EFFC70BD53
:1037300070B50446A56B2846FFF7E9FC70BD00BFD5
:1037400000BF02680C3252E8002F22F49071026828
:103750000C3242E80013002BF3D100BF00BF00BFC2
:103760000268143252E8002F22F00101026814327C
:1037700042E80013002BF3D100BF016B01290ED1E9
:1037800000BF00BF02680C3252E8002F22F0100187
:1037900002680C3242E80013002BF3D100BF202155
:1037A00080F8421000210163704710B5044620687C
:1037B000C06820F040002168C860202084F84100E3
:1037C0002046FFF7A3FC002010BD00BF00BF026829
:1037D0000C3252E8002F22F0C00102680C3242E89D
:1037E0000013002BF3D100BF202180F84110704757
:1037F000F8B5044694F84200222875D1A068B0F5C7
:10380000805F0CD1206950B90025A66A2068406805
:10381000C0F308003080A06A801CA06215E0A56A91
:103820000026A068B0F5805F03D0A06828B92069A1
:1038300018B920684068287004E02068406800F0EB
:103840007F002870A06A401CA062E08D401E80B2FC
:10385000E085002846D12068C06820F0200021685B
:10386000C8602068C06820F480702168C860206843
:10387000406920F0010021684861202084F842005E
:1038800000206063206B012826D10020206300BF48
:1038900000BF21680C3151E8001F21F010002168A1
:1038A0000C3141E80002002AF3D100BF2068006813
:1038B00000F0100010280AD100BF002000902068FE
:1038C0000068009020684068009000BF00BFA18D94
:1038D0002046FFF72FF802E02046FFF7B9FB002053
:1038E000F8BD01E00020FBE70220F9E72DE9F84FE1
:1038F00004462068006920F44050E16808432168CC
:1039000008612169A068084361690843E1690843C7
:1039100000902068C06849F20C6188430099084310
:103920002168C8602068406920F44070A16908439C
:103930002168486176492068884203D0754920682B
:10394000884203D1FEF7ECFC814602E0FEF7D8FC8A
:103950008146E069B0F5004F6CD102206168A0FBA0
:10396000015003461920A9FB007001462A4638463B
:10397000FCF770FD6421B0FBF1F04FEA001A022061
:103980006168A0FB01510B461920A9FB00712A4672
:103990003846FCF75FFD834602206168A0FB0150BA
:1039A00003461920A9FB00712A463846FCF752FD50
:1039B0006421B0FBF1F000EBC00101EB0010ABEBB8
:1039C0008000322101EBC0006421B0FBF1F000F077
:1039D000F8000AEB400A02206168A0FB0150034690
:1039E0001920A9FB007001462A463846FCF732FD33
:1039F000834602206168A0FB015003461920A9FB01
:103A000000712A463846FCF725FD6421B0FBF1F031
:103A100000EBC00101EB0010ABEB8000322101EBA9
:103A2000C0006421B0FBF1F000F0070050442168B1
:103A300088606AE004206168A0FB015003461920F9
:103A4000A9FB007001462A463846FCF703FD824672
:103A500004206168A0FB015003461920A9FB0070F7
:103A600001462A463846FCF7F5FC6421B0FBF1F02C
:103A700000EBC00101EB0010AAEB8000322101EB4A
:103A800000106421B0FBF1F000F0F00A042061683E
:103A9000A0FB017003461920A9FB00513A462846B5
:103AA000FCF7D8FC6421B0FBF1F00AEB001A04200B
:103AB0006168A0FB01510B461920A9FB00712A4641
:103AC0003846FCF7C7FC834604206168A0FB015020
:103AD00003461920A9FB007001462A463846FCF728
:103AE000B9FC6421B0FBF1F000EBC00101EB001068
:103AF000ABEB8000322101EB00106421B0FBF1F050
:103B000000F00F00504421688860BDE8F88F000085
:103B1000001001400014014077B581B004461546FD
:103B20000298A062A58500206064222084F84200EB
:103B30002848E16BC8632848E16B08642748E16BBB
:103B4000C8640020E16B086502AE32682368191D65
:103B50002B46E06BFEF7DCF800BF002000902068E9
:103B60000068009020684068009000BF00BF206996
:103B700070B100BF00BF21680C3151E8001F41F453
:103B8000807021680C3141E80002002AF3D100BFA7
:103B900000BF00BF2168143151E8001F41F001004F
:103BA0002168143141E80002002AF3D100BF00BFB0
:103BB00000BF2168143151E8001F41F04000216826
:103BC000143141E80002002AF3D100BF002004B004
:103BD00070BD000001360008B5360008B135000898
:103BE000014691F84100212828D18868B0F5805F0E
:103BF0000BD1086948B90A6A1088C0F308000B683D
:103C00005860086A801C086205E00B6A581C08624C
:103C100018780B685860C88C401E80B2C88458B9A8
:103C20000868C06820F080000B68D8600868C06829
:103C300040F040000B68D860002070470220FCE78D
:103C400010B50248FEF7B4FE10BD0000E4070020E6
:103C500010B5FCF7F5FF0248FEF7AAFE10BD000004
:103C60002C08002010B50248FEF7A2FE10BD00008F
:103C70007408002000BFFEE702480068C0F302207D
:103C8000704700000CED00E010B5002804DB0A07C7
:103C9000130E054A135406E00A07140E034A00F0F7
:103CA0000F031B1FD45410BD00E400E018ED00E02A
:103CB0002DED020B019820F0004001909DED000BCE
:103CC00002B0704770B505460C4600260DB1022CB7
:103CD00000D870BDA11E06480288284600F0C4F92D
:103CE0000646A01E2E54310A601E295400BFF0E77C
:103CF0003C05002070B505460C4600260DB1022C8F
:103D000000D870BD611EFF22284600F0C7F90646A4
:103D1000601E2E5400BFF4E700B58BB0012009905F
:103D2000002007900120089000200190029003904D
:103D300004900590069001A90C48FDF7D7F80B48B0
:103D4000FDF7AFFD02210948FDF716F80E200A9095
:103D5000069001A90648FDF7C9F80548FDF7A1FD41
:103D600002210348FDF708F80BB000BD94070020BE
:103D7000BC07002010B52DED048B83480068807AC5
:103D800040B28149887408460068B0F906000528E9
:103D900006DC08460068B0F9060010F1050F05DAE8
:103DA00079480068C0887849888102E00020764917
:103DB000888175480068B0F90400052806DC72485F
:103DC0000068B0F9040010F1050F05DA6E480068CC
:103DD00080886D49C88102E000206B49C8816A482B
:103DE0000068B0F90800052806DC67480068B0F9EB
:103DF000080010F1050F05DA634800680089624980
:103E0000088202E00020604908825F480068007D67
:103E100000F0010020B14FF425705B49888109E072
:103E200059480068007D00F0020018B14FF66C5050
:103E30005549888154480068007D00F0040020B195
:103E40004FF60C605049C88109E04F480068007D7A
:103E500000F0080018B14FF4FA704B49C8814A4885
:103E60000068007D00F0200070B14748808938B1BB
:103E70004548C08920B14FF42F704349088203E0C0
:103E80004FF47A70404908823F480068007D00F096
:103E90001000C8B33C49B1F90C0004F0D5F841EC6E
:103EA000190B9FED3A0B53EC102B04F02DF941EC5C
:103EB000180B04F065F800B233498881B1F90E009F
:103EC00004F0C2F841EC190B9FED300B53EC102BB2
:103ED00004F01AF941EC180B04F052F800B22A4928
:103EE000C881B1F9100004F0AFF841EC190B9FED57
:103EF000270B53EC102B04F007F941EC180B04F0DE
:103F00003FF800B2204908821F48007DC8B31E490F
:103F1000B1F90C0004F098F841EC190B9FED1D0B62
:103F200053EC102B04F0F0F841EC180B04F028F8D7
:103F300000B215498881B1F90E0004F085F841EC12
:103F4000190B9FED140B53EC102B04F0DDF841EC32
:103F5000180B04F015F800B20B49C881B1F9100034
:103F600004F072F841EC190B9FED0A0B53EC102B87
:103F700004F0CAF841EC180B04F002F800B2024950
:103F80000882BDEC048B10BD3C4900206666666665
:103F90006666F63F000000000000E03F10B500F04C
:103FA000A9F80349886000F0B1F80149086010BD24
:103FB0003C4900200A2002F0E7FAFFF7EFFF3BE060
:103FC000FFF7D8FE002000F093FD48B10223002245
:103FD00011461046FCF7BEFC02201849C87425E0C3
:103FE0001648806890F8620401280DD1134A937C2A
:103FF000B2F90E10B2F90C0040F21452FCF7AAFC10
:1040000001200E49C87411E00C48806890F86204E1
:1040100060B90A4CA37CB4F91020B4F90E10B4F9BD
:104020000C00FCF797FC03202146C87400200349CC
:10403000C874012002F0A8FAC2E700003C49002041
:1040400010B502460B460021002002E0145C21441A
:10405000401C9842FADB0846CC1701EB146424128A
:10406000A1EB0421C8B210BD30B5034613B94FF619
:10407000FF7030BD09E013F8014B82EA0400C0B2C2
:10408000054D35F8100080EA2222081EA1F1010139
:10409000F1D11046EDE70000D290000830B503469C
:1040A00005E013F8010B80EA02040448025D081ED3
:1040B000A1F10101F5D1104630BD0000D18F0008FB
:1040C00000487047C00000204178027841EA022190
:1040D000054A1180817891700179C27841EA022104
:1040E000014AD17070470000C000002000487047AE
:1040F0002C48002000487047D80000200048704736
:104100008C480020004870478248002000487047D3
:10411000DC4800200048704796480020004870475F
:10412000A0480020004870475C4E002000487047BF
:1041300038480020004870477848002010B500201B
:1041400000F0D6FC20B100210846FCF72DFC09E068
:10415000054AB2F84C24524211B2034AB2F928027D
:10416000FCF722FC10BD0000D800002010B52B4841
:10417000007830B900212948A0F82812A0F84C1482
:1041800010BD26480078012815D0022804D0032845
:1041900020D004283ED12EE0214AA2F14401A1F111
:1041A000D00000F05AFB1F4AA2F14401A1F1D00057
:1041B00000F053FB2FE0194A6032A2F14401081FBE
:1041C00000F00CFB174ACC3AA2F14401081F00F0A2
:1041D00005FB20E0124A443202F14401A1F5CE7001
:1041E00000F063FB0F4A443202F14401A1F5CE70A6
:1041F00000F05BFB0FE0094A6032A2F14401081FA6
:1042000000F0ECFA074ACC3AA2F14401081F00F092
:10421000E5FA00E000BF00BF00BFB1E7D800002012
:10422000040200202804002010B52DED0C8B9148CD
:1042300000789049487008464068807A012804D088
:1042400002280AD003280CD103E003208949087012
:1042500008E002208749087004E0002085490870C2
:1042600000E000BF00BF83480078012807D0022883
:1042700004D003287ED004287DD17DE000BF9FEDCF
:104280007E0AF0EE408A9FED7C0AB0EE409A002054
:1042900008EE100A002477484068B0F900000A28A8
:1042A00006DC74484068B0F9000010F10A0F06DA25
:1042B00070484068B0F9000008EE100A02E00020E3
:1042C00008EE100A6B484068B0F902000A2806DCC4
:1042D00068484068B0F9020010F10A0F04DA654836
:1042E0004068B0F9024000E00024B8EEC80ADFEDF3
:1042F000630A20EE200A5F484068B0F90C0000EE27
:10430000900AF8EEE00A9FED5E1A00EE810AF0EEE8
:10431000408A58484068B0F90E0000EE100AB8EE26
:10432000C00ADFED580A20EE200A10EE101A0846E7
:1043300004F0BCFB41EC1B0B204603F085FE41EC76
:104340001D0B9FED510B53EC102B03F0DDFE41ECE8
:104350001C0B53EC1B2B03F0E1FC41EC1A0B03F09C
:104360007BFB09EE100AF0EE490AB0EE680A00F095
:10437000C1F96BE001E068E000BF9FED3F0AF0EE9D
:10438000401A9FED3D0AB0EE401A3A48806890ED21
:104390000D0AF0EE401A3748806890ED0E0AB0EE34
:1043A000401ABAEE020AF4EEC01AF1EE10FA04D87E
:1043B000BAEE020AF0EE401A0AE0B2EE020AF4EE99
:1043C000C01AF1EE10FA03DBB2EE020AF0EE401A68
:1043D000B9EE0C0AB4EEC01AF1EE10FA04D8B9EE38
:1043E0000C0AB0EE401A0AE0B1EE0C0AB4EEC01AA4
:1043F000F1EE10FA03DBB1EE0C0AB0EE401A1D48E4
:10440000806890F8410001280FD11A4890ED860A83
:104410008068D0ED0D0A30EE600A164880ED850AFE
:1044200090ED850A80ED7F0A09E01248806890F8D7
:10443000410020B90F4890ED7F0A80ED850A1448AD
:1044400080ED7F1A00F082FA00E000BF00BF09484B
:10445000007808494978884209D0064890ED860AD4
:1044600080ED850A9FED040A094880ED7F0ABDECC6
:104470000C8B10BDD80000200000000017B751B908
:104480006F1283BA52491DBA2D431CEBE2362A3F04
:104490001403002056488069008801B25448A0F8EF
:1044A0001212D0F83C02008801B25148A0F836142C
:1044B000B0F91012B0F91202081AB0F5805F0ADDE7
:1044C0004B48B0F8120241F6FF71084401B2484867
:1044D000A0F8121212E04648B0F91012B0F9120218
:1044E000081A10F5805F09DA4148B0F81202A0F509
:1044F000F850FF3801B23E48A0F812123C48B0F91B
:104500003414B0F93604081AB0F5805F0ADD384873
:10451000B0F8360441F6FF71084401B23448A0F8FF
:10452000361412E03248B0F93414B0F93604081ADF
:1045300010F5805F09DA2E48B0F83604A0F5F8507F
:10454000FF3801B22A48A0F836142948806941880A
:104550002748A0F80E12D0F83C0241882448A0F861
:104560003214C06890ED020A214880ED880AC068C4
:1045700090ED010A1F4880ED820A1D48006990ED08
:10458000020A1B4880ED860A006990ED000A19486E
:1045900080ED800A164890ED850AD0ED860A30EE4F
:1045A000600ADFED150AB4EEE00AF1EE10FA08DD5C
:1045B00090ED850ADFED110A30EE200A80ED850AC4
:1045C00015E00B4890ED850AD0ED860A30EE600AC2
:1045D000DFED0B0AB4EEE00AF1EE10FA07D290ED2F
:1045E000850ADFED060A30EE600A80ED850A704725
:1045F000D800002014030020000034430080B3439F
:10460000000034C310B5FFF781FD36494860FFF75D
:1046100091FD34498861FFF775FD3249C1F83C02CC
:10462000FFF784FD2F49C860FFF760FD2D49086141
:10463000FFF778FD2B498860FFF742FD2949486163
:1046400001F11C0000F002FD274800F0FFFC2548A6
:10465000603000F0FBFC2448443000F0F7FC2148B7
:10466000A43000F0F3FC2048883000F0EFFC1D4837
:10467000E83000F0EBFC1C48CC3000F0E7FC1B48B5
:1046800000F0E4FC1A4800F0E1FC1848443000F067
:10469000DDFC1748443000F0D9FC124AB2F81C2463
:1046A00011B2104AB2F9240400F0A2FB0E48001F18
:1046B00080ED7B0A0B4AB2F81C2411B2094AB2F908
:1046C000260400F095FB0848001F80ED7C0A054891
:1046D000006990ED020A034880ED7F0AFFF7DAFED9
:1046E00010BD0000D80000201803002004020020A4
:1046F000280400203748007801282ED0022866D1EF
:10470000344890ED851A31EE001A80ED851A00F5D7
:104710000F7090ED7F1AFAEE0D1AB4EEE11AF1EE79
:1047200010FA04D2BAEE0D1A80ED7F1A0DE02A4875
:1047300090ED7F1AF2EE0B1AB4EEE11AF1EE10FAD8
:1047400003DDB2EE0B1A80ED7F1A234890ED7F1A3D
:1047500031EE201A80ED7F1A3AE01E48B0F91002BF
:1047600001EE100AB8EEC11A31EE001ABDEEC11A00
:1047700011EE100A01B21748A0F81012B0F9340473
:1047800001EE100AB8EEC11A31EE201ABDEEC11AC0
:1047900011EE100A01B20F48A0F83414B0F9341425
:1047A000B0F92404814205DD0A48B0F82414A0F8C9
:1047B00034140BE00748B0F93414B0F926048142F0
:1047C00004DA0448B0F82614A0F8341400E000BF5E
:1047D00000BF7047D80000201403002070B50446C5
:1047E0000D46164604F5FA74B4F9040001EE100AF9
:1047F000B8EEC11AF0EE410AB4F9060001EE100A53
:10480000B8EEC11AB0EE410A304600F05FFBBDEED3
:10481000C00A10EE100A00B22080B4F9000001EEC8
:10482000100AB8EEC11AF0EE410AB4F9020001EE26
:10483000100AB8EEC11AB0EE410A284600F046FB55
:1048400084ED060A94ED060ABDEEC00A10EE100AC9
:1048500000B2A083A4F5FA7470BD70B504460D468D
:10486000164694ED7F1AF0EE410A94ED801AB0EEF0
:10487000410A304600F02AFB84ED810A94ED811A4A
:10488000F0EE410A94ED821AB0EE410A284600F09B
:104890001DFB84ED830A94ED830ABDEEC00A10EE81
:1048A000100A00B2A4F8100270BD70B504460D469F
:1048B000164694ED7F1AF0EE410A94ED801AB0EEA0
:1048C000410A304600F002FB84ED810A94ED811A22
:1048D000F0EE410A94ED821AB0EE410A284600F04B
:1048E000F5FA84ED830A94ED830ABDEEC00A10EE5A
:1048F000100A00B2A4F8100270BD00000A2001F0F6
:1049000043FEFFF77FFE1EE0FFF78EFCFFF7C2FDC0
:10491000FFF72CFCFFF712FC0B4840698078402819
:104920000AD109484069C078B0F5947F04DC0120C1
:10493000054981F8620403E00020034981F862041C
:10494000012001F021FEDFE7D800002014480078A4
:10495000032802D004281FD11DE0124890ED7F0AE1
:10496000FAEE0D0AB4EEE00AF1EE10FA04D2BAEE55
:104970000D0A80ED7F0A0DE00A4890ED7F0AF2EE05
:104980000B0AB4EEE00AF1EE10FA03DDB2EE0B0A08
:1049900080ED7F0A01E000E000BF00BF704700002B
:1049A000D800002014030020FDF70EFBFEF792FD57
:1049B000FEF7AEFCFEF7F2FBFEF722FDFEF7AAFBC8
:1049C000FEF7CAFBFEF738FDFEF752FD01F088FC4A
:1049D000FFF7A2F9FCF7DCF8FEF724FC00F02EFA52
:1049E00000BFFEE701460020842901D0CA1C104404
:1049F0007047000010B5044604EBC40000EB4410FF
:104A00003A490844006804EBC40101EB4411374AF9
:104A10001144486002F044FE04EBC40101EB441170
:104A2000324A1144086004EBC40000EB4410114604
:104A30000844C07D98B1002004EBC40101EB44118F
:104A40001144C87504EBC40000EB4410114608443F
:104A5000006804EBC40101EB44111144C86004EB8D
:104A6000C40000EB441021490844D0F8210090B361
:104A700004EBC40101EB44111C4A1144D1F821009C
:104A80008047F8B1012004EBC40101EB4411174A3F
:104A90001144887504EBC40101EB441111440876FC
:104AA00004EBC40000EB441011460844D0F8250084
:104AB000D0B104EBC40101EB44111144D1F825003D
:104AC000804711E0002004EBC40101EB4411074AC8
:104AD0001144087608E0FFE7002004EBC40101EB75
:104AE0004411024A1144087610BD0000B84D002060
:104AF000014601EBC10000EB4110044A1044807DE7
:104B0000012800D170470020FCE70000B84D0020CC
:104B100010B586B0044614223B4901A8FBF798FD66
:104B200000206CE000EB400101AA32F8111000EB0C
:104B3000C00202EB4012354B1A44118200EB4001D7
:104B400001AA02EB4101498800EBC00202EB4012CE
:104B50001A44518200EB400101AA02EB410109799C
:104B600000EBC00202EB40121A445175002100EB29
:104B7000C00202EB40121A44C2F81D10012100EBE2
:104B8000C00202EB40121A441175002100EBC00272
:104B900002EB40121A449175012100EBC00202EBB6
:104BA00040121A44D17500EBC00202EB40121A44C5
:104BB00011769FED170A10EE101A00EBC00202EBFF
:104BC00040121A44C2F8191000EBC00101EB401169
:104BD0001A4611440C6000EBC00101EB4011114476
:104BE0004C6000EBC00101EB401111448C6000EB04
:104BF000C00101EB40111144CC60411CC8B2032834
:104C000090DB06B010BD00008C8F0008B84D00206E
:104C10000000000002F044FD05462846FFF778FF3B
:104C2000392001F0B1FCDDE002F03AFD054600213B
:104C30006D4880F8921080F891100024CFE004EBCA
:104C4000C40000EB441068490844007D00B9C5E089
:104C500004EBC40000EB4410634908440068281AC0
:104C600004EBC40101EB44115F4A1144098A8842F4
:104C700044D904EBC40000EB441011460844807D85
:104C800098B9012004EBC40101EB44111144C8752B
:104C900004EBC40101EB44111144887504EBC4001A
:104CA00000EB441011460844856004EBC40000EB9F
:104CB00044104D490844417D4B4890F89000814292
:104CC00002DD494880F890400121474880F8921061
:104CD00080F8911004EBC40000EB441042490844F2
:104CE000D0F81D00002878D004EBC40101EB44117A
:104CF0003D4A1144D1F81D0080476EE004EBC4002A
:104D000000EB4410384908440068281A04EBC40139
:104D100001EB4411344A1144498A88420ED20020E2
:104D200004EBC40101EB44111144C875012004EBEC
:104D3000C40101EB4411114488754EE0002004EBDE
:104D4000C40101EB4411284A1144C87504EBC400A6
:104D500000EB441011460844007E38B1012004EBFA
:104D6000C40101EB44111144887507E0002004EBF5
:104D7000C40101EB44111C4A1144887504EBC400C2
:104D800000EB441018490844006804EBC40101EB2F
:104D90004411154A1144496888421ED904EBC400E5
:104DA00000EB441011460844006804EBC40101EB19
:104DB000441111444968401A00EE100AF8EE400A06
:104DC0009FED0A1A81EE200A10EE100A04EBC401CE
:104DD00001EB44111144C1F8190000BF641C032CFD
:104DE000FFF62DAF20E70000B84D002000007A4408
:104DF0000246501AB0F5805F03DDA0F5F850FF3889
:104E000005E010F5805F02DA41F6FF73184400EE0A
:104E1000100AB8EEC00ADFED020A20EE200A704741
:104E2000F205493D70B5044625460DB1294600E01E
:104E30000121084601F0A8FB002070BD10B501F06B
:104E4000FFFB002010BDF8B504460D46A06840B138
:104E5000E06830B10020009094E80F0002F04BF9B8
:104E6000F8BD0022D4E9000102F018F9F8E77FB597
:104E700004460D46606998B1A06988B1B4F908008C
:104E8000FFF7B0FD0646D4E90510CDE900610290B8
:104E90002B462269D4E9001002F094FB039013E042
:104EA000B4F90800FFF79EFD064603A8CDE90060AF
:104EB000238A9AB22B46D4E9001002F051FB012854
:104EC00002D0002004B070BD0398FBE7B0EE401A9A
:104ED00010B99FED450A704790ED0F0A80ED100A5A
:104EE00090ED0E0A80ED0F0AC0ED050A80ED061A5E
:104EF00030EEC10A80ED0E0A90ED000AD0ED0E1AD8
:104F000020EE210A80ED080A90ED090AD0ED011A81
:104F100090ED0E2A01EE820A80ED090A90ED0C0A4E
:104F200080ED0D0A90ED0B0A80ED0C0A90ED0E0A53
:104F3000D0ED0F1A30EE610A80ED0B0A90ED020AF7
:104F4000D0ED0B1A20EE210A80ED0A0A90ED090A35
:104F5000D0ED041AB4EEE10AF1EE10FA04DD90EDA2
:104F6000040A80ED090A10E090ED090AD0ED041A58
:104F7000F1EE611AB4EEE10AF1EE10FA05D290ED0D
:104F8000040AB1EE400A80ED090A90ED080AD0ED5E
:104F9000091A30EE210AD0ED0A1A30EE210A80ED0E
:104FA000070A90ED070AD0ED031AB4EEE10AF1EE1C
:104FB00010FA04DD90ED030A80ED070A10E090ED91
:104FC000070AD0ED031AF1EE611AB4EEE10AF1EE30
:104FD00010FA05D290ED030AB1EE400A80ED070AFF
:104FE00090ED070A77E700000000000000B101B96A
:104FF000704791ED001A80ED001A91ED011A80EDD5
:10500000011A91ED021A80ED021A80ED030AC0ED3B
:10501000040A9FED0D1A80ED0D1A80ED0C1A80ED3B
:105020000B1A9FED091A80ED071A80ED0A1A80ED20
:10503000091A80ED081A80ED101A80ED0F1A80ED24
:105040000E1A00BFD4E700000000000000B970474E
:105050009FED0C0A80ED0D0A80ED0C0A80ED0B0A25
:105060009FED080A80ED070A80ED0A0A80ED090A23
:1050700080ED080A80ED100A80ED0F0A80ED0E0A1F
:1050800000BFE4E7000000002DE9F04105460E46B0
:105090001C4807681C480068001D01F035F950B92C
:1050A0001948006890F82C100120884017490968B9
:1050B000814316480160681C38B936B1124801684E
:1050C000091D134801F06AF91AE07C190E480068BE
:1050D0004460BC4207D20C480168091D0D480068B5
:1050E00001F042F90CE008480168091D0A4800680F
:1050F00001F03AF909480068844201D20748046087
:10510000BDE8F08148000020340000204C00002061
:10511000180B00203C000020380000206400002014
:1051200010B5044601F046F923480068401C2249A6
:1051300008602248006840B92048046008460068BA
:1051400001280DD100F0A6F90AE01D48006838B921
:105150001A480068C06AE16A884201D817480460AA
:1051600018480068401C1749086094F82C1001206A
:10517000884015490968084313490860E16A01EB52
:105180008101124A02EB8100211D01F007F901F0B3
:105190003BF90B48006868B108480068C06AE16ADA
:1051A000884207D24FF0805009490860BFF34F8F03
:1051B000BFF36F8F10BD00004400002034000020BA
:1051C00050000020600000204C0000203C0A00201D
:1051D00004ED00E010B516E001F0ECF80C48C068F2
:1051E000C468201D01F090F80A480068401E094973
:1051F000086009480068401E0749086001F004F98A
:10520000204600F05FF8044800680028E4D110BD93
:10521000040B0020440000204000002070B504462C
:105220000D46206C70B1216CE0680144E160D4E966
:105230000210884201D32168E1602846226CE168AF
:10524000FBF77FF970BD2DE9F04104460F46154686
:105250004FF00008A66B206C48B9206800282CD1BC
:10526000A06802F0C7FA80460020A06025E07DB962
:105270003946226C6068FBF764F9216C6068084469
:105280006060D4E90101884217D32068606014E0AF
:105290003946226CE068FBF754F9216CE068411A4A
:1052A000E1602168E068884203D2216CA068411A5D
:1052B000E160022D01D106B1761E701CA06340464C
:1052C000BDE8F08110B5044694F8510030B9206B68
:1052D00001F0B8F8204601F0B5F81AE094F8510052
:1052E000012803D1204601F0ADF812E094F85100F6
:1052F000022801D1012000E0002050B900BF502059
:1053000080F31188BFF34F8FBFF36F8F00BF00BFD3
:10531000FEE710BD30B54FF47053174800F0070496
:105320002CB1C01D20F00700134C041B1B1B0246B0
:10533000124C22600024114D6C60D018083820F007
:1053400007000F4C206000240D4D2D686C600C4D43
:105350002D682C601146441A4C60094C24680C607E
:10536000084D4C682C60084D4C682C604FF0004490
:10537000064D2C6030BD00002C0B0020700000207A
:1053800078000020800000207C0000208C0000209D
:1053900000BFFFF71FFF064800680128F9D94FF04A
:1053A000805004490860BFF34F8FBFF36F8FF0E761
:1053B0003C0A002004ED00E02DE9F04106460D46D0
:1053C00017469846069C0DB9246000E02760E66306
:1053D00025640121204601F0FFFEBDE8F0812DE9A2
:1053E000FF5F81460E469246DDE90E7B109CAAF1D6
:1053F0000100216B01EB800828F0070808F0070086
:1054000008B9012000E0002050B900BF502080F30F
:105410001188BFF34F8FBFF36F8F00BF00BFFEE750
:1054200086B1002507E0715D04F134004155705DDF
:1054300000B902E06D1C102DF5D300BF0021432000
:10544000015502E0002084F83400072F00D306271E
:10545000E76267640020A064201D00F082FF04F171
:10546000180000F07EFF2461C7F10700A0616462AC
:105470000020E06484F8500049464046039A00F05A
:105480009FF92060BBF1000F01D0CBF80040BDE8D0
:10549000FF9F000010B5002407E004EB84010F4AD1
:1054A00002EB810000F050FF641C072CF5D30C4880
:1054B00000F04AFF0B4800F047FF0B4800F044FFA4
:1054C0000A4800F041FF0A4800F03EFF044809493D
:1054D000086004480849086010BD00003C0A00202C
:1054E000C80A0020DC0A0020F00A0020040B00207B
:1054F000180B0020380000203C00002010B50146A9
:10550000164800E0006803688B42FBD302464368FC
:1055100013448B4204D143684C68234443600146E2
:105520000A464B6813440468A34211D10C4C03682B
:105530002468A34208D04B680468646823444B6025
:1055400003681B680B6005E0054B1B680B6001E0FE
:1055500003680B60884200D0016010BD700000201D
:105560007800002070B5054600F024FFA86B08B94C
:10557000012400E0002400F047FF204670BD000039
:105580000A490968096809B9012100E0002121B12F
:105590004FF0FF31064A116006E004490968C96806
:1055A000C868034A41681160704700003800002055
:1055B000640000200E480068401C08B9012000E08B
:1055C000002050B900BF502080F31188BFF34F8FE7
:1055D000BFF36F8F00BF00BFFEE700BF502080F316
:1055E0001188BFF34F8FBFF36F8F00BF00BFFEE77F
:1055F0009000002070B5044600F0DCFE94F94550A0
:1056000010E0606A08B9012000E0002038B904F118
:10561000240002F053F918B100F0F0FF00E003E0BD
:10562000681E45B2002DECDC00BFFF2084F8450069
:1056300000F0EAFE00F0BEFE94F9445010E020694C
:1056400008B9012000E0002048B904F1100002F080
:1056500035F908B100F0D2FF681E45B200E001E064
:10566000002DECDC00BFFF2084F8440000F0CCFEED
:1056700070BD00002DE9F04104464FF0000801F034
:1056800037F84948006808B9FFF744FE4748006802
:105690002040002870D1D4B1083404F00700B0B124
:1056A00004F00700C0F10800044404F0070008B942
:1056B000012000E0002050B900BF502080F3118885
:1056C000BFF34F8FBFF36F8F00BF00BFFEE7002C0B
:1056D00052D03748006884424ED8364E304605686E
:1056E00001E02E462D686868A04202D22868002892
:1056F000F7D12D48006885423ED0306800F1080897
:10570000286830606868001B102819D92F1907F025
:10571000070008B9012000E0002050B900BF502068
:1057200080F31188BFF34F8FBFF36F8F00BF00BFAF
:10573000FEE76868001B78606C603846FFF7DEFEA5
:105740001B4968680968081A194908600846006812
:1057500019490968884203D215480068164908604B
:105760001249686809680843686000202860134887
:105770000068401C1149086002F0ECF808F00700CE
:1057800008B9012000E0002050B900BF502080F38C
:105790001188BFF34F8FBFF36F8F00BF00BFFEE7CD
:1057A0004046BDE8F0810000780000208C00002019
:1057B0007C00002070000020800000208400002079
:1057C000001F4FF080730360001F21F0010303608E
:1057D000001F054B036014380260001F6FF00203C6
:1057E0000360203870470000B555000800B101B9CA
:1057F00070470278437842EA0322C2F30A020A8021
:105800004278D210837842EA4312C2F30A024A80F5
:1058100082789211C37842EA8302037942EA8322B2
:10582000C2F30A028A8002795210437942EAC31213
:10583000C2F30A02CA804279C2F301128A72427923
:1058400012119308CB728279C37942EA032212B211
:105850008A81027A437A42EA032213B201F10C02EE
:10586000CB81827AC37A42EA032213B201F10C029D
:105870000B82037B8B74437BCB74827BC37B42EABA
:1058800003228A82027C437C42EA032212B20A810A
:105890000A88A2F5806212B20A804A88A2F5806264
:1058A00012B24A808A88A2F5806212B28A80CA88BF
:1058B000A2F5806212B2CA800A89A2F5806212B291
:1058C0000A8100BF94E7000010B52DED048B04465B
:1058D000E068B0F9020000EE100AB8EEC00A84EDEC
:1058E0004B0A2069B0F90200404200EE100AB8EEFF
:1058F000C00A84ED4C0AA068B0F9020000EE100A5C
:10590000B8EEC00A84ED4E0AA0680088C4F84001D1
:10591000A1680988A268B2F90820881A02F094FBED
:1059200041EC190BB0EE490AF0EE690AFEF7C0F936
:10593000B0EE408AF0EE608A9FED2A0B53EC102BFC
:1059400051EC180B02F07FFD22D2A0680088A168FC
:10595000B1F9081088420DDAA068B0F90800C0F566
:105960000050A16809880844D4F848110844C4F8D4
:10597000480118E0A068B0F90800C0F50050A1681F
:1059800009880844D4F84811081AC4F848010AE004
:10599000A0680088A168B1F90810401AD4F848112D
:1059A0000844C4F84801D4F8480102F04DFB41EC2A
:1059B000190BB0EE490AF0EE690AFEF779F9B0EE7C
:1059C000408AF0EE608A9FED090B53EC102B51ECEE
:1059D000180B02F038FD02D80020C4F84801BDECD5
:1059E000048B10BD0000000000FEAF40000000006E
:1059F0000000124110B52A480078022849D19FEDD5
:105A0000290A274880ED4A0A90ED4A1AF0EE410A29
:105A100090ED4B1AB0EE410AA030FFF757FABDEEF9
:105A2000C00A10EE100A00B21D49A1F85001084644
:105A300090ED4A1AF0EE410A90ED4C1AB0EE410A90
:105A4000E430FFF743FABDEEC00A10EE100A00B2D0
:105A50001349A1F85201084690ED4B0AB5EEC00A71
:105A6000F1EE10FA1BD190ED4C0AB5EEC00AF1EE42
:105A700010FA14D1B0F86201401CA1F86201084686
:105A8000B0F8620119280ADD00200870A1F862014F
:105A900005E000200249A1F85001A1F8520110BD13
:105AA0004C5300200000000000B58DB0324A07CAF8
:105AB0000AAB07C3304A0C3207CA07AB07C32E4AEA
:105AC000183207CA04AB07C32B4A243207CA01ABFA
:105AD00007C3DFED2A0A9FED2A0A0AA92948FFF722
